{
  "contractName": "ProductTraceability",
  "abi": [
    {
      "anonymous": false,
      "inputs": [
        {
          "indexed": false,
          "internalType": "uint256",
          "name": "productId",
          "type": "uint256"
        },
        {
          "indexed": false,
          "internalType": "address",
          "name": "transporter",
          "type": "address"
        },
        {
          "indexed": false,
          "internalType": "string",
          "name": "location",
          "type": "string"
        }
      ],
      "name": "LocationUpdated",
      "type": "event"
    },
    {
      "anonymous": false,
      "inputs": [
        {
          "indexed": false,
          "internalType": "string",
          "name": "name",
          "type": "string"
        },
        {
          "indexed": false,
          "internalType": "uint256",
          "name": "productId",
          "type": "uint256"
        },
        {
          "indexed": false,
          "internalType": "address",
          "name": "farmer",
          "type": "address"
        }
      ],
      "name": "ProductCreated",
      "type": "event"
    },
    {
      "inputs": [
        {
          "internalType": "address",
          "name": "",
          "type": "address"
        }
      ],
      "name": "farmers",
      "outputs": [
        {
          "internalType": "bool",
          "name": "",
          "type": "bool"
        }
      ],
      "stateMutability": "view",
      "type": "function",
      "constant": true
    },
    {
      "inputs": [
        {
          "internalType": "address",
          "name": "",
          "type": "address"
        }
      ],
      "name": "processors",
      "outputs": [
        {
          "internalType": "bool",
          "name": "",
          "type": "bool"
        }
      ],
      "stateMutability": "view",
      "type": "function",
      "constant": true
    },
    {
      "inputs": [
        {
          "internalType": "uint256",
          "name": "",
          "type": "uint256"
        }
      ],
      "name": "products",
      "outputs": [
        {
          "internalType": "string",
          "name": "name",
          "type": "string"
        },
        {
          "internalType": "string",
          "name": "origin",
          "type": "string"
        },
        {
          "internalType": "uint256",
          "name": "dateOfHarvest",
          "type": "uint256"
        },
        {
          "internalType": "address",
          "name": "farmer",
          "type": "address"
        },
        {
          "internalType": "address",
          "name": "retailer",
          "type": "address"
        },
        {
          "internalType": "uint256",
          "name": "price",
          "type": "uint256"
        }
      ],
      "stateMutability": "view",
      "type": "function",
      "constant": true
    },
    {
      "inputs": [
        {
          "internalType": "address",
          "name": "",
          "type": "address"
        }
      ],
      "name": "retailers",
      "outputs": [
        {
          "internalType": "bool",
          "name": "",
          "type": "bool"
        }
      ],
      "stateMutability": "view",
      "type": "function",
      "constant": true
    },
    {
      "inputs": [],
      "name": "totalProducts",
      "outputs": [
        {
          "internalType": "uint256",
          "name": "",
          "type": "uint256"
        }
      ],
      "stateMutability": "view",
      "type": "function",
      "constant": true
    },
    {
      "inputs": [
        {
          "internalType": "address",
          "name": "",
          "type": "address"
        }
      ],
      "name": "transporters",
      "outputs": [
        {
          "internalType": "bool",
          "name": "",
          "type": "bool"
        }
      ],
      "stateMutability": "view",
      "type": "function",
      "constant": true
    },
    {
      "inputs": [],
      "name": "registerAsFarmer",
      "outputs": [],
      "stateMutability": "nonpayable",
      "type": "function"
    },
    {
      "inputs": [],
      "name": "registerAsTransporter",
      "outputs": [],
      "stateMutability": "nonpayable",
      "type": "function"
    },
    {
      "inputs": [],
      "name": "registerAsRetailer",
      "outputs": [],
      "stateMutability": "nonpayable",
      "type": "function"
    },
    {
      "inputs": [
        {
          "internalType": "address",
          "name": "_address",
          "type": "address"
        }
      ],
      "name": "isFarmer",
      "outputs": [
        {
          "internalType": "bool",
          "name": "",
          "type": "bool"
        }
      ],
      "stateMutability": "view",
      "type": "function",
      "constant": true
    },
    {
      "inputs": [
        {
          "internalType": "address",
          "name": "_address",
          "type": "address"
        }
      ],
      "name": "isTransporter",
      "outputs": [
        {
          "internalType": "bool",
          "name": "",
          "type": "bool"
        }
      ],
      "stateMutability": "view",
      "type": "function",
      "constant": true
    },
    {
      "inputs": [
        {
          "internalType": "address",
          "name": "_address",
          "type": "address"
        }
      ],
      "name": "isRetailer",
      "outputs": [
        {
          "internalType": "bool",
          "name": "",
          "type": "bool"
        }
      ],
      "stateMutability": "view",
      "type": "function",
      "constant": true
    },
    {
      "inputs": [
        {
          "internalType": "string",
          "name": "name",
          "type": "string"
        },
        {
          "internalType": "string",
          "name": "origin",
          "type": "string"
        },
        {
          "internalType": "uint256",
          "name": "dateOfHarvest",
          "type": "uint256"
        }
      ],
      "name": "createProduct",
      "outputs": [
        {
          "internalType": "uint256",
          "name": "",
          "type": "uint256"
        }
      ],
      "stateMutability": "nonpayable",
      "type": "function"
    },
    {
      "inputs": [
        {
          "internalType": "uint256",
          "name": "productId",
          "type": "uint256"
        },
        {
          "internalType": "string",
          "name": "location",
          "type": "string"
        }
      ],
      "name": "updateProductLocation",
      "outputs": [],
      "stateMutability": "nonpayable",
      "type": "function"
    },
    {
      "inputs": [
        {
          "internalType": "uint256",
          "name": "productId",
          "type": "uint256"
        },
        {
          "internalType": "uint256",
          "name": "_price",
          "type": "uint256"
        }
      ],
      "name": "claimProduct",
      "outputs": [],
      "stateMutability": "nonpayable",
      "type": "function"
    },
    {
      "inputs": [
        {
          "internalType": "uint256",
          "name": "productId",
          "type": "uint256"
        }
      ],
      "name": "getProduct",
      "outputs": [
        {
          "internalType": "string",
          "name": "",
          "type": "string"
        },
        {
          "internalType": "string",
          "name": "",
          "type": "string"
        },
        {
          "internalType": "uint256",
          "name": "",
          "type": "uint256"
        },
        {
          "internalType": "address",
          "name": "",
          "type": "address"
        },
        {
          "internalType": "address[]",
          "name": "",
          "type": "address[]"
        },
        {
          "internalType": "string[]",
          "name": "",
          "type": "string[]"
        },
        {
          "internalType": "uint256[]",
          "name": "",
          "type": "uint256[]"
        },
        {
          "internalType": "address",
          "name": "",
          "type": "address"
        },
        {
          "internalType": "uint256",
          "name": "",
          "type": "uint256"
        }
      ],
      "stateMutability": "view",
      "type": "function",
      "constant": true
    }
  ],
  "bytecode": "0x608060405234801561001057600080fd5b50611f87806100206000396000f3fe608060405234801561001057600080fd5b50600436106101005760003560e01c8063965e064a11610097578063b942906911610066578063b9429069146102b2578063b9db15b4146102e2578063da0a6c1f1461031a578063e25bd1581461033657610100565b8063965e064a146102045780639a268f35146102345780639b9d326d14610264578063a14222091461028257610100565b80635cd17b05116100d35780635cd17b05146101795780635da09b88146101835780637acc0b20146101b357806392d8d86e146101e857610100565b806309067ed0146101055780632b8109d51461010f5780632c27afec1461013f578063401b216814610149575b600080fd5b61010d610366565b005b61012960048036038101906101249190611366565b6103bf565b60405161013691906113ae565b60405180910390f35b610147610415565b005b610163600480360381019061015e9190611366565b61046f565b60405161017091906113ae565b60405180910390f35b61018161048f565b005b61019d60048036038101906101989190611366565b6104e8565b6040516101aa91906113ae565b60405180910390f35b6101cd60048036038101906101c891906113ff565b61053e565b6040516101df969594939291906114da565b60405180910390f35b61020260048036038101906101fd9190611549565b6106ca565b005b61021e60048036038101906102199190611366565b6107e3565b60405161022b91906113ae565b60405180910390f35b61024e60048036038101906102499190611366565b610803565b60405161025b91906113ae565b60405180910390f35b61026c610823565b6040516102799190611589565b60405180910390f35b61029c600480360381019061029791906116d9565b610829565b6040516102a99190611589565b60405180910390f35b6102cc60048036038101906102c79190611366565b610bab565b6040516102d991906113ae565b60405180910390f35b6102fc60048036038101906102f791906113ff565b610c00565b604051610311999897969594939291906119ec565b60405180910390f35b610334600480360381019061032f9190611a9c565b611022565b005b610350600480360381019061034b9190611366565b611123565b60405161035d91906113ae565b60405180910390f35b60016000803373ffffffffffffffffffffffffffffffffffffffff1673ffffffffffffffffffffffffffffffffffffffff16815260200190815260200160002060006101000a81548160ff021916908315150217905550565b6000600160008373ffffffffffffffffffffffffffffffffffffffff1673ffffffffffffffffffffffffffffffffffffffff16815260200190815260200160002060009054906101000a900460ff169050919050565b6001600360003373ffffffffffffffffffffffffffffffffffffffff1673ffffffffffffffffffffffffffffffffffffffff16815260200190815260200160002060006101000a81548160ff021916908315150217905550565b60006020528060005260406000206000915054906101000a900460ff1681565b60018060003373ffffffffffffffffffffffffffffffffffffffff1673ffffffffffffffffffffffffffffffffffffffff16815260200190815260200160002060006101000a81548160ff021916908315150217905550565b6000600360008373ffffffffffffffffffffffffffffffffffffffff1673ffffffffffffffffffffffffffffffffffffffff16815260200190815260200160002060009054906101000a900460ff169050919050565b600460205280600052604060002060009150905080600001805461056190611b27565b80601f016020809104026020016040519081016040528092919081815260200182805461058d90611b27565b80156105da5780601f106105af576101008083540402835291602001916105da565b820191906000526020600020905b8154815290600101906020018083116105bd57829003601f168201915b5050505050908060010180546105ef90611b27565b80601f016020809104026020016040519081016040528092919081815260200182805461061b90611b27565b80156106685780601f1061063d57610100808354040283529160200191610668565b820191906000526020600020905b81548152906001019060200180831161064b57829003601f168201915b5050505050908060020154908060030160009054906101000a900473ffffffffffffffffffffffffffffffffffffffff16908060060160009054906101000a900473ffffffffffffffffffffffffffffffffffffffff16908060070154905086565b600073ffffffffffffffffffffffffffffffffffffffff166004600084815260200190815260200160002060060160009054906101000a900473ffffffffffffffffffffffffffffffffffffffff1673ffffffffffffffffffffffffffffffffffffffff161461076f576040517f08c379a000000000000000000000000000000000000000000000000000000000815260040161076690611bca565b60405180910390fd5b336004600084815260200190815260200160002060060160006101000a81548173ffffffffffffffffffffffffffffffffffffffff021916908373ffffffffffffffffffffffffffffffffffffffff1602179055508060046000848152602001908152602001600020600701819055505050565b60026020528060005260406000206000915054906101000a900460ff1681565b60036020528060005260406000206000915054906101000a900460ff1681565b60055481565b600080600160055461083b9190611c19565b90506040518061012001604052808681526020018581526020018481526020013373ffffffffffffffffffffffffffffffffffffffff168152602001600067ffffffffffffffff811115610892576108916115ae565b5b6040519080825280602002602001820160405280156108c05781602001602082028036833780820191505090505b508152602001600067ffffffffffffffff8111156108e1576108e06115ae565b5b60405190808252806020026020018201604052801561091457816020015b60608152602001906001900390816108ff5790505b508152602001600073ffffffffffffffffffffffffffffffffffffffff16815260200160008152602001600067ffffffffffffffff811115610959576109586115ae565b5b6040519080825280602002602001820160405280156109875781602001602082028036833780820191505090505b508152506004600083815260200190815260200160002060008201518160000190816109b39190611df9565b5060208201518160010190816109c99190611df9565b506040820151816002015560608201518160030160006101000a81548173ffffffffffffffffffffffffffffffffffffffff021916908373ffffffffffffffffffffffffffffffffffffffff1602179055506080820151816004019080519060200190610a37929190611143565b5060a0820151816005019080519060200190610a549291906111cd565b5060c08201518160060160006101000a81548173ffffffffffffffffffffffffffffffffffffffff021916908373ffffffffffffffffffffffffffffffffffffffff16021790555060e08201518160070155610100820151816008019080519060200190610ac3929190611226565b5090505060056000815480929190610ada90611ecb565b91905055506004600082815260200190815260200160002060050184908060018154018082558091505060019003906000526020600020016000909190919091509081610b279190611df9565b50600460008281526020019081526020016000206008018390806001815401808255809150506001900390600052602060002001600090919091909150557f065de62eb065059154a387fe10f1b9e685ab20c0552fd141e3fa6a14b8dd8fbe858233604051610b9893929190611f13565b60405180910390a1809150509392505050565b60008060008373ffffffffffffffffffffffffffffffffffffffff1673ffffffffffffffffffffffffffffffffffffffff16815260200190815260200160002060009054906101000a900460ff169050919050565b60608060008060608060606000806000600460008c815260200190815260200160002060405180610120016040529081600082018054610c3f90611b27565b80601f0160208091040260200160405190810160405280929190818152602001828054610c6b90611b27565b8015610cb85780601f10610c8d57610100808354040283529160200191610cb8565b820191906000526020600020905b815481529060010190602001808311610c9b57829003601f168201915b50505050508152602001600182018054610cd190611b27565b80601f0160208091040260200160405190810160405280929190818152602001828054610cfd90611b27565b8015610d4a5780601f10610d1f57610100808354040283529160200191610d4a565b820191906000526020600020905b815481529060010190602001808311610d2d57829003601f168201915b50505050508152602001600282015481526020016003820160009054906101000a900473ffffffffffffffffffffffffffffffffffffffff1673ffffffffffffffffffffffffffffffffffffffff1673ffffffffffffffffffffffffffffffffffffffff16815260200160048201805480602002602001604051908101604052809291908181526020018280548015610e3857602002820191906000526020600020905b8160009054906101000a900473ffffffffffffffffffffffffffffffffffffffff1673ffffffffffffffffffffffffffffffffffffffff1681526020019060010190808311610dee575b5050505050815260200160058201805480602002602001604051908101604052809291908181526020016000905b82821015610f12578382906000526020600020018054610e8590611b27565b80601f0160208091040260200160405190810160405280929190818152602001828054610eb190611b27565b8015610efe5780601f10610ed357610100808354040283529160200191610efe565b820191906000526020600020905b815481529060010190602001808311610ee157829003601f168201915b505050505081526020019060010190610e66565b5050505081526020016006820160009054906101000a900473ffffffffffffffffffffffffffffffffffffffff1673ffffffffffffffffffffffffffffffffffffffff1673ffffffffffffffffffffffffffffffffffffffff1681526020016007820154815260200160088201805480602002602001604051908101604052809291908181526020018280548015610fc957602002820191906000526020600020905b815481526020019060010190808311610fb5575b5050505050815250509050806000015181602001518260400151836060015184608001518560a001518661010001518760c001518860e00151995099509950995099509950995099509950509193959799909294969850565b60046000838152602001908152602001600020600401339080600181540180825580915050600190039060005260206000200160009091909190916101000a81548173ffffffffffffffffffffffffffffffffffffffff021916908373ffffffffffffffffffffffffffffffffffffffff16021790555060046000838152602001908152602001600020600501819080600181540180825580915050600190039060005260206000200160009091909190915090816110e19190611df9565b50600460008381526020019081526020016000206008014290806001815401808255809150506001900390600052602060002001600090919091909150555050565b60016020528060005260406000206000915054906101000a900460ff1681565b8280548282559060005260206000209081019282156111bc579160200282015b828111156111bb5782518260006101000a81548173ffffffffffffffffffffffffffffffffffffffff021916908373ffffffffffffffffffffffffffffffffffffffff16021790555091602001919060010190611163565b5b5090506111c99190611273565b5090565b828054828255906000526020600020908101928215611215579160200282015b828111156112145782518290816112049190611df9565b50916020019190600101906111ed565b5b5090506112229190611290565b5090565b828054828255906000526020600020908101928215611262579160200282015b82811115611261578251825591602001919060010190611246565b5b50905061126f9190611273565b5090565b5b8082111561128c576000816000905550600101611274565b5090565b5b808211156112b057600081816112a791906112b4565b50600101611291565b5090565b5080546112c090611b27565b6000825580601f106112d257506112f1565b601f0160209004906000526020600020908101906112f09190611273565b5b50565b6000604051905090565b600080fd5b600080fd5b600073ffffffffffffffffffffffffffffffffffffffff82169050919050565b600061133382611308565b9050919050565b61134381611328565b811461134e57600080fd5b50565b6000813590506113608161133a565b92915050565b60006020828403121561137c5761137b6112fe565b5b600061138a84828501611351565b91505092915050565b60008115159050919050565b6113a881611393565b82525050565b60006020820190506113c3600083018461139f565b92915050565b6000819050919050565b6113dc816113c9565b81146113e757600080fd5b50565b6000813590506113f9816113d3565b92915050565b600060208284031215611415576114146112fe565b5b6000611423848285016113ea565b91505092915050565b600081519050919050565b600082825260208201905092915050565b60005b8381101561146657808201518184015260208101905061144b565b60008484015250505050565b6000601f19601f8301169050919050565b600061148e8261142c565b6114988185611437565b93506114a8818560208601611448565b6114b181611472565b840191505092915050565b6114c5816113c9565b82525050565b6114d481611328565b82525050565b600060c08201905081810360008301526114f48189611483565b905081810360208301526115088188611483565b905061151760408301876114bc565b61152460608301866114cb565b61153160808301856114cb565b61153e60a08301846114bc565b979650505050505050565b600080604083850312156115605761155f6112fe565b5b600061156e858286016113ea565b925050602061157f858286016113ea565b9150509250929050565b600060208201905061159e60008301846114bc565b92915050565b600080fd5b600080fd5b7f4e487b7100000000000000000000000000000000000000000000000000000000600052604160045260246000fd5b6115e682611472565b810181811067ffffffffffffffff82111715611605576116046115ae565b5b80604052505050565b60006116186112f4565b905061162482826115dd565b919050565b600067ffffffffffffffff821115611644576116436115ae565b5b61164d82611472565b9050602081019050919050565b82818337600083830152505050565b600061167c61167784611629565b61160e565b905082815260208101848484011115611698576116976115a9565b5b6116a384828561165a565b509392505050565b600082601f8301126116c0576116bf6115a4565b5b81356116d0848260208601611669565b91505092915050565b6000806000606084860312156116f2576116f16112fe565b5b600084013567ffffffffffffffff8111156117105761170f611303565b5b61171c868287016116ab565b935050602084013567ffffffffffffffff81111561173d5761173c611303565b5b611749868287016116ab565b925050604061175a868287016113ea565b9150509250925092565b600081519050919050565b600082825260208201905092915050565b6000819050602082019050919050565b61179981611328565b82525050565b60006117ab8383611790565b60208301905092915050565b6000602082019050919050565b60006117cf82611764565b6117d9818561176f565b93506117e483611780565b8060005b838110156118155781516117fc888261179f565b9750611807836117b7565b9250506001810190506117e8565b5085935050505092915050565b600081519050919050565b600082825260208201905092915050565b6000819050602082019050919050565b600082825260208201905092915050565b600061186a8261142c565b611874818561184e565b9350611884818560208601611448565b61188d81611472565b840191505092915050565b60006118a4838361185f565b905092915050565b6000602082019050919050565b60006118c482611822565b6118ce818561182d565b9350836020820285016118e08561183e565b8060005b8581101561191c57848403895281516118fd8582611898565b9450611908836118ac565b925060208a019950506001810190506118e4565b50829750879550505050505092915050565b600081519050919050565b600082825260208201905092915050565b6000819050602082019050919050565b611963816113c9565b82525050565b6000611975838361195a565b60208301905092915050565b6000602082019050919050565b60006119998261192e565b6119a38185611939565b93506119ae8361194a565b8060005b838110156119df5781516119c68882611969565b97506119d183611981565b9250506001810190506119b2565b5085935050505092915050565b6000610120820190508181036000830152611a07818c611483565b90508181036020830152611a1b818b611483565b9050611a2a604083018a6114bc565b611a3760608301896114cb565b8181036080830152611a4981886117c4565b905081810360a0830152611a5d81876118b9565b905081810360c0830152611a71818661198e565b9050611a8060e08301856114cb565b611a8e6101008301846114bc565b9a9950505050505050505050565b60008060408385031215611ab357611ab26112fe565b5b6000611ac1858286016113ea565b925050602083013567ffffffffffffffff811115611ae257611ae1611303565b5b611aee858286016116ab565b9150509250929050565b7f4e487b7100000000000000000000000000000000000000000000000000000000600052602260045260246000fd5b60006002820490506001821680611b3f57607f821691505b602082108103611b5257611b51611af8565b5b50919050565b7f546869732070726f647563742068617320616c7265616479206265656e20636c60008201527f61696d656420627920612072657461696c657200000000000000000000000000602082015250565b6000611bb4603383611437565b9150611bbf82611b58565b604082019050919050565b60006020820190508181036000830152611be381611ba7565b9050919050565b7f4e487b7100000000000000000000000000000000000000000000000000000000600052601160045260246000fd5b6000611c24826113c9565b9150611c2f836113c9565b9250828201905080821115611c4757611c46611bea565b5b92915050565b60008190508160005260206000209050919050565b60006020601f8301049050919050565b600082821b905092915050565b600060088302611caf7fffffffffffffffffffffffffffffffffffffffffffffffffffffffffffffffff82611c72565b611cb98683611c72565b95508019841693508086168417925050509392505050565b6000819050919050565b6000611cf6611cf1611cec846113c9565b611cd1565b6113c9565b9050919050565b6000819050919050565b611d1083611cdb565b611d24611d1c82611cfd565b848454611c7f565b825550505050565b600090565b611d39611d2c565b611d44818484611d07565b505050565b5b81811015611d6857611d5d600082611d31565b600181019050611d4a565b5050565b601f821115611dad57611d7e81611c4d565b611d8784611c62565b81016020851015611d96578190505b611daa611da285611c62565b830182611d49565b50505b505050565b600082821c905092915050565b6000611dd060001984600802611db2565b1980831691505092915050565b6000611de98383611dbf565b9150826002028217905092915050565b611e028261142c565b67ffffffffffffffff811115611e1b57611e1a6115ae565b5b611e258254611b27565b611e30828285611d6c565b600060209050601f831160018114611e635760008415611e51578287015190505b611e5b8582611ddd565b865550611ec3565b601f198416611e7186611c4d565b60005b82811015611e9957848901518255600182019150602085019450602081019050611e74565b86831015611eb65784890151611eb2601f891682611dbf565b8355505b6001600288020188555050505b505050505050565b6000611ed6826113c9565b91507fffffffffffffffffffffffffffffffffffffffffffffffffffffffffffffffff8203611f0857611f07611bea565b5b600182019050919050565b60006060820190508181036000830152611f2d8186611483565b9050611f3c60208301856114bc565b611f4960408301846114cb565b94935050505056fea2646970667358221220b0d174b880b3e92c660362b66aa771745827444dff9add08fbc15bd9fdbd962564736f6c63430008130033",
  "immutableReferences": {},
  "source": "//SPDX-License-Identifier: MIT\r\n\r\npragma solidity ^0.8.0;\r\n\r\ncontract ProductTraceability {\r\n    // Initializing the contract\r\n    struct Product {\r\n        string name;\r\n        string origin;\r\n        uint256 dateOfHarvest;\r\n        address farmer;\r\n        address[] transporters;\r\n        string[] locationUpdates;\r\n        address retailer;\r\n        uint256 price;\r\n        uint256[] dates;\r\n    }\r\n\r\n    mapping(address => bool) public farmers;\r\n    mapping(address => bool) public transporters;\r\n    mapping(address => bool) public processors;\r\n    mapping(address => bool) public retailers;\r\n\r\n    // Mapping to store product IDs and their corresponding Product struct\r\n    mapping(uint256 => Product) public products;\r\n    uint256 public totalProducts;\r\n\r\n    event ProductCreated(string name, uint256 productId, address farmer);\r\n    event LocationUpdated(\r\n        uint256 productId,\r\n        address transporter,\r\n        string location\r\n    );\r\n\r\n    //Register page functions\r\n\r\n    function registerAsFarmer() public {\r\n        farmers[msg.sender] = true;\r\n    }\r\n\r\n    function registerAsTransporter() public {\r\n        transporters[msg.sender] = true;\r\n    }\r\n\r\n    function registerAsRetailer() public {\r\n        retailers[msg.sender] = true;\r\n    }\r\n\r\n    //modifier functions\r\n    // modifier onlyFarmer() {\r\n    //     require(\r\n    //         farmers[msg.sender] == true,\r\n    //         \"Only farmers can perform this action.\"\r\n    //     );\r\n    //     _;\r\n    // }\r\n\r\n    // modifier onlyTransporter() {\r\n    //     require(\r\n    //         transporters[msg.sender] == true,\r\n    //         \"Only transporters can perform this action.\"\r\n    //     );\r\n    //     _;\r\n    // }\r\n\r\n    // modifier onlyRetailer() {\r\n    //     require(\r\n    //         retailers[msg.sender] == true,\r\n    //         \"Only retailers can perform this action.\"\r\n    //     );\r\n    //     _;\r\n    // }\r\n\r\n    function isFarmer(address _address) public view returns (bool) {\r\n        return farmers[_address];\r\n    }\r\n\r\n    function isTransporter(address _address) public view returns (bool) {\r\n        return transporters[_address];\r\n    }\r\n\r\n    function isRetailer(address _address) public view returns (bool) {\r\n        return retailers[_address];\r\n    }\r\n\r\n    // Function to create a new product\r\n    function createProduct(\r\n        string memory name,\r\n        string memory origin,\r\n        uint256 dateOfHarvest\r\n    ) public returns (uint256) {\r\n        uint256 productId = totalProducts + 1;\r\n        products[productId] = Product(\r\n            name,\r\n            origin,\r\n            dateOfHarvest,\r\n            msg.sender,\r\n            new address[](0),\r\n            new string[](0),\r\n            address(0),\r\n            0,\r\n            new uint256[](0)\r\n        );\r\n        totalProducts++;\r\n        products[productId].locationUpdates.push(origin);\r\n        products[productId].dates.push(dateOfHarvest);\r\n        emit ProductCreated(name, productId, msg.sender);\r\n        return productId;\r\n    }\r\n\r\n    // Function for a transporter to update a product's location\r\n    function updateProductLocation(\r\n        uint256 productId,\r\n        string memory location\r\n    ) public {\r\n        products[productId].transporters.push(msg.sender);\r\n        products[productId].locationUpdates.push(location);\r\n        products[productId].dates.push(block.timestamp);\r\n    }\r\n\r\n    // Function for a retailer to claim ownership of a product\r\n    function claimProduct(uint256 productId, uint256 _price) public {\r\n        // Make sure the product is available for claiming\r\n        require(\r\n            products[productId].retailer == address(0),\r\n            \"This product has already been claimed by a retailer\"\r\n        );\r\n        products[productId].retailer = msg.sender;\r\n        products[productId].price = _price;\r\n    }\r\n\r\n    // Function to get a product's information\r\n    function getProduct(\r\n        uint256 productId\r\n    )\r\n        public\r\n        view\r\n        returns (\r\n            string memory,\r\n            string memory,\r\n            uint256,\r\n            address,\r\n            address[] memory,\r\n            string[] memory,\r\n            uint256[] memory,\r\n            address,\r\n            uint256\r\n        )\r\n    {\r\n        Product memory product = products[productId];\r\n        return (\r\n            product.name,\r\n            product.origin,\r\n            product.dateOfHarvest,\r\n            product.farmer,\r\n            product.transporters,\r\n            product.locationUpdates,\r\n            product.dates,\r\n            product.retailer,\r\n            product.price\r\n        );\r\n    }\r\n}\r\n",
  "sourcePath": "C:\\Users\\arora\\OneDrive\\Desktop\\FarmicoV2\\smart_contract\\contracts\\Farmico.sol",
  "compiler": {
    "name": "solc",
    "version": "0.8.19+commit.7dd6d404.Emscripten.clang"
  },
  "schemaVersion": "3.4.13",
  "updatedAt": "2023-05-05T11:29:00.394Z",
  "networkType": "ethereum",
  "devdoc": {
    "kind": "dev",
    "methods": {},
    "version": 1
  },
  "userdoc": {
    "kind": "user",
    "methods": {},
    "version": 1
  }
}